:100000000C9463000C948B000C948B000C94910363
:100010000C9491030C9491030C948B000C948B0022
:100020000C948B000C948B000C948B000C948B0024
:100030000C948B000C948B000C948B000C948B0014
:100040000C94EF020C948B000C945F030C94390316
:100050000C948B000C948B000C948B000C948B00F4
:100060000C948B000C948B000000000024002700EF
:100070002A0000000008000201000003040700003D
:1000800000000000000000000000230026002900FE
:1000900000000000250028002B00040404040404D0
:1000A0000404020202020202030303030303010227
:1000B00004081020408001020408102001020408F6
:1000C00010200B04CB0611241FBECFEFD8E0DEBFFB
:1000D000CDBF11E0A0E0B1E0EEE4FEE002C005908B
:1000E0000D92A832B107D9F722E0A8E2B1E001C031
:1000F0001D92A935B207E1F710E0C2E6D0E004C0D6
:100100002197FE010E940F07C136D107C9F70E944F
:10011000B6040C941A070C94000090E0FC01EE5811
:10012000FF4F2491FC01E255FF4F3491FC01E6564C
:10013000FF4FE491EE2309F43CC0222339F1233030
:1001400091F038F42130A9F0223001F584B58F7D8B
:1001500012C0273091F02830A1F02430B9F48091FA
:1001600080008F7D03C0809180008F778093800016
:100170000DC084B58F7784BD09C08091B0008F77A2
:1001800003C08091B0008F7D8093B000F0E0EE0F4F
:10019000FF1FE057FF4FA591B4919FB7F8946111ED
:1001A00004C08C913095382302C0EC913E2B3C93D7
:1001B0009FBF0895CF93DF9390E0FC01E255FF4F7E
:1001C0002491FC01E656FF4F8491882361F190E071
:1001D000880F991FFC01E859FF4FC591D491FC018C
:1001E000E057FF4FA591B491611109C09FB7F894F2
:1001F0008881209582238883EC912E230BC0623066
:1002000061F49FB7F8948881322F309583238883D7
:10021000EC912E2B2C939FBF06C08FB7F894E881EA
:100220002E2B28838FBFDF91CF9108953FB7F8948D
:100230008091990190919A01A0919B01B0919C01AC
:1002400026B5A89B05C02F3F19F00196A11DB11D31
:100250003FBFBA2FA92F982F8827820F911DA11D6C
:10026000B11DBC01CD0142E0660F771F881F991FA9
:100270004A95D1F70895CF92DF92EF92FF920F93B4
:100280001F93CF93DF936C017A018B01C0E0D0E024
:10029000CE15DF0581F0D8016D918D01D601ED916C
:1002A000FC910190F081E02DC6010995892B11F098
:1002B0002196EECF7E01C701DF91CF911F910F9163
:1002C000FF90EF90DF90CF900895FC01538D448D07
:1002D000252F30E0842F90E0821B930B541710F0F1
:1002E000CF96089501970895FC01918D828D9817FE
:1002F00061F0828DDF01A80FB11D5D968C91928D0A
:100300009F5F9F73928F90E008958FEF9FEF089506
:10031000FC01918D828D981731F0828DE80FF11DCF
:10032000858D90E008958FEF9FEF0895FC01918DEA
:10033000228D892F90E0805C9F4F821B91098F73E3
:10034000992708958DE991E00E94960121E0892B7B
:1003500009F420E0822F0895FC01848DDF01A80FAD
:10036000B11DA35ABF4F2C91848D90E001968F73DD
:100370009927848FA689B7892C93A089B1898C91FC
:10038000837080648C93938D848D981306C002884B
:10039000F389E02D80818F7D80830895EF92FF9215
:1003A0000F931F93CF93DF93EC0181E0888F9B8D98
:1003B0008C8D981305C0E889F989808185FD26C058
:1003C000F62E0B8D10E00F5F1F4F0F731127E02EDD
:1003D0008C8DE8120CC00FB607FCFACFE889F989BA
:1003E000808185FFF5CFCE010E94AC01F1CF8B8DCE
:1003F000FE01E80FF11DE35AFF4FF0829FB7F8941A
:100400000B8FEA89FB89808180620AC09FB7F894CC
:10041000EE89FF896083E889F9898081837080642F
:1004200080839FBF81E090E0DF91CF911F910F917A
:10043000FF90EF900895CF93DF93EC01888D882390
:10044000C9F0EA89FB89808185FD05C0A889B98941
:100450008C9186FD0FC00FB607FCF5CF808185FF1C
:10046000F2CFA889B9898C9185FFEDCFCE010E948A
:10047000AC01E7CFDF91CF91089580E090E0892B28
:1004800029F00E94A20181110C940000089520918E
:100490006A0130916B012817390771F49091680156
:1004A00080916901981741F0E0916801F0E0E85D02
:1004B000FE4F808190E008958FEF9FEF089508959B
:1004C0001F93CF93DF93DC015C968D919C915D9798
:1004D000009739F421E030E013963C932E93129765
:1004E0003BC05196ED91FC91529750962C915097AC
:1004F000322F30951FB75E964C915E97742F7270B5
:1005000041FD6095F8944081772311F0422B01C0A2
:1005100043234083EC012197F1F748E0508160FFCD
:1005200002C0522B01C053235083EC012197F1F7F5
:100530006695415099F78081772319F08323808352
:1005400002C0282B20831FBF5C968D919C915D97E4
:100550000197F1F781E090E0DF91CF911F9108952D
:1005600020916A0130916B012817390771F480914D
:1005700069012091680190E0805C9F4F821B910986
:1005800060E470E00E94E706089580E090E008953E
:1005900020916A0130916B0128173907B9F49091C5
:1005A000680180916901981789F0E0916801F0E095
:1005B000E85DFE4F80812091680130E02F5F3F4F62
:1005C0002F7333272093680190E008958FEF9FEFFA
:1005D0000895089580E090E008950E9415071F9205
:1005E0000F920FB60F9211242F933F938F939F93E7
:1005F000AF93BF938091950190919601A09197013F
:10060000B09198013091940123E0230F2D3720F40D
:100610000196A11DB11D05C026E8230F0296A11D5C
:10062000B11D209394018093950190939601A0931E
:100630009701B09398018091990190919A01A091AE
:100640009B01B0919C010196A11DB11D8093990160
:1006500090939A01A0939B01B0939C01BF91AF919D
:100660009F918F913F912F910F900FBE0F901F90F0
:1006700018951F920F920FB60F9211242F933F934C
:100680004F935F936F937F938F939F93AF93BF939A
:10069000EF93FF938DE991E00E94AC01FF91EF9100
:1006A000BF91AF919F918F917F916F915F914F918A
:1006B0003F912F910F900FBE0F901F9018951F9292
:1006C0000F920FB60F9211242F938F939F93EF9356
:1006D000FF93E091AD01F091AE018081E091B30113
:1006E000F091B40182FD12C090818091B6018F5FBC
:1006F0008F732091B701821751F0E091B601F0E0BD
:10070000E356FE4F958F8093B60101C08081FF9123
:10071000EF919F918F912F910F900FBE0F901F908F
:1007200018951F920F920FB60F9211242F933F939B
:100730004F935F936F937F938F939F93AF93BF93E9
:10074000EF93FF93E0916A01F0916B01309709F408
:1007500051C0968DA685B785858591FF04C09C9173
:10076000892329F447C09C91892309F043C0A389B8
:10077000B4899C918589809589238C9386899789F2
:100780000197F1F7608D718DA685B785558538E0A5
:1007900020E0CB010197F1F7822F90E095958795A6
:1007A000282F4C91452309F02068315091F7868D10
:1007B00081FD20958091690190E001968F739927C2
:1007C00030916801381749F0A0916901B0E0A85D47
:1007D000BE4F2C938093690103C0868D8160868F04
:1007E000828D938D0197F1F7A389B4899C918589B6
:1007F000892B8C93FF91EF91BF91AF919F918F9136
:100800007F916F915F914F913F912F910F900FBE0C
:100810000F901F9018951092A00110929F0188EEE2
:1008200093E0A0E0B0E08093A1019093A201A09397
:10083000A301B093A40124E031E030939E01209302
:100840009D0125EC30E03093AA012093A90124EC0E
:1008500030E03093AC012093AB0120EC30E03093DA
:10086000AE012093AD0121EC30E03093B001209334
:10087000AF0122EC30E03093B2012093B10126ECBD
:1008800030E03093B4012093B3011092B60110927E
:10089000B7011092B8011092B90110923D02109266
:1008A0003C0280933E0290933F02A0934002B0939B
:1008B000410286E191E090933B0280933A021092CC
:1008C0005102109250021092530210925202109252
:1008D00055021092540210925702109256026091E3
:1008E00058026E7F6D7F609358026695617081E05B
:1008F000682783E00E948D0061E083E00E94DA00B7
:10090000E1EBF0E0E491E0934A02EDE9F0E0E491FC
:10091000F0E0EE0FFF1FE057FF4F85919491909309
:100920004C0280934B0260E082E00E94DA008091EA
:10093000580281FD04C061E082E00E948D0082E0E7
:1009400080934602E0EBF0E0E491E0934702ECE9AB
:10095000F0E0E491F0E0EE0FFF1FEA57FF4F8591C2
:10096000949190934902809348020895789484B5B5
:10097000826084BD84B5816084BD85B5826085BD9B
:1009800085B5816085BD80916E00816080936E0029
:10099000109281008091810082608093810080911B
:1009A00081008160809381008091800081608093CC
:1009B00080008091B10084608093B1008091B0008C
:1009C00081608093B00080917A00846080937A0087
:1009D00080917A00826080937A0080917A008160B1
:1009E00080937A0080917A00806880937A001092D8
:1009F000C1001092550210925402109253021092AC
:100A0000520210925102109250028DE991E090939F
:100A100057028093560290914602963108F058C0D2
:100A20002DEB30E030935102209350022BE931E05E
:100A300030935302209352022CE231E0309355025E
:100A40002093540240916800983058F031E09E3075
:100A500008F430E021E0822F01C0880F3A95EAF7D0
:100A600001C084E0842B80936800983038F09E3079
:100A700040F0963148F42CE630E008C02DE630E036
:100A800005C02BE630E002C020E030E030934E029B
:100A900020934D02983030F481E001C0880F9A9580
:100AA000EAF70EC0292F30E09E3018F428503109A3
:100AB00002C02E50310981E001C0880F2A95EAF763
:100AC00080934F0280915602909157020197F1F75F
:100AD0008091540290915502892B49F1E0916A016D
:100AE000F0916B0122E0EA33F20709F1309739F017
:100AF000A389B4899C918589809589238C93809161
:100B000058028E7F809358021092690110926801FA
:100B10008AE392E090936B0180936A01E0914D0229
:100B2000F0914E02908180914F02892B8083E09159
:100B3000AD01F091AE0182E08083E091A901F091D6
:100B4000AA011082E091AB01F091AC018FEC80839F
:100B50001092B501E091B101F091B20186E080837D
:100B6000E091AF01F091B001808180618083E091DC
:100B7000AF01F091B001808188608083E091AF0186
:100B8000F091B001808180688083E091AF01F091A5
:100B9000B00180818F7D808361E087E00E94DA0070
:100BA00061E087E00E948D001EE50DE42CE3922EAB
:100BB0003BE2832E4AE1742E50E4652E64E6A62EB5
:100BC000B12C8AE392E00E94B002809794F190E702
:100BD000E92E91E0F92EC0E0D0E08AE392E00E9495
:100BE000C802F70181937F01CE31D1055CF42091D9
:100BF0006E0130916F01A901480F511D50936F0193
:100C000040936E012196C032D10539F78091700171
:100C10008234F1F4809171018D34D1F480917E01A0
:100C200090917F0198278927982790936D01809351
:100C30006C0180916C0190916D01893191051CF4DA
:100C40007092920105C0863491052CF48092920135
:100C500024E630E026C0883791051CF4909292017A
:100C6000F7CF883C91051CF400939201F1CF1093CB
:100C70009201EECF80917A0086FDFCCF80917800C2
:100C80004091790090E0942B409190015091910116
:100C9000840F951F90939101809390012150310909
:100CA00041F060927C0080917A00806480937A00A9
:100CB000E1CFB5010E94E70677FF03C0719561950A
:100CC00071097093910160939001809190019091CE
:100CD00091018A3A91051CF47092930114C0883CEA
:100CE00091051CF4809293010EC0863E91051CF480
:100CF0009092930108C0843091401CF400939301BA
:100D000002C0109393010E9416011B012C0184EF75
:100D1000C82EDD24D394E12CF12C0E941601DC01B5
:100D2000CB0182199309A409B509883E9340A10516
:100D3000B10598F381E0C81AD108E108F108E8EE9E
:100D40002E0EE3E03E1E411C511CC114D104E104EF
:100D5000F10419F768EC8DE991E00E94CE016091F1
:100D600093018DE991E00E94CE01609192018DE99D
:100D700091E00E94CE016AE58DE991E00E94CE01EA
:100D800042E050E064E271E08DE991E00E943B01B5
:100D90000E943D0216CF86E191E090933B02809342
:100DA0003A0280916A0190916B018A53924071F4EA
:100DB000E0914D02F0914E02908180914F0280951A
:100DC0008923808310926B0110926A01089597FB2A
:100DD000072E16F4009407D077FD09D00E94FB0679
:100DE00007FC05D03EF4909581959F4F089570952E
:100DF00061957F4F0895AA1BBB1B51E107C0AA1F35
:100E0000BB1FA617B70710F0A61BB70B881F991FAB
:100E10005A95A9F780959095BC01CD010895EE0FE4
:100E2000FF1F0590F491E02D099481E090E0F89483
:100E30000C941A0710E0C2E6D0E004C0FE010E9444
:0E0E40000F072196C336D107C9F7F894FFCFEC
:100E4E0000000000CE013B0165011B0296017401FA
:100E5E0088010000000060023B01EA025F02B0025E
:080E6E00C80247020D0A000052
:107E0000112484B714BE81FFF0D085E080938100F7
:107E100082E08093C00088E18093C10086E0809377
:107E2000C20080E18093C4008EE0C9D0259A86E02C
:107E300020E33CEF91E0309385002093840096BBD3
:107E4000B09BFECF1D9AA8958150A9F7CC24DD24C4
:107E500088248394B5E0AB2EA1E19A2EF3E0BF2EE7
:107E6000A2D0813461F49FD0082FAFD0023811F036
:107E7000013811F484E001C083E08DD089C08234E0
:107E800011F484E103C0853419F485E0A6D080C0E4
:107E9000853579F488D0E82EFF2485D0082F10E0AE
:107EA000102F00270E291F29000F111F8ED06801E7
:107EB0006FC0863521F484E090D080E0DECF843638
:107EC00009F040C070D06FD0082F6DD080E0C81688
:107ED00080E7D80618F4F601B7BEE895C0E0D1E017
:107EE00062D089930C17E1F7F0E0CF16F0E7DF06D8
:107EF00018F0F601B7BEE89568D007B600FCFDCFD4
:107F0000A601A0E0B1E02C9130E011968C91119780
:107F100090E0982F8827822B932B1296FA010C0160
:107F200087BEE89511244E5F5F4FF1E0A038BF0790
:107F300051F7F601A7BEE89507B600FCFDCF97BE46
:107F4000E89526C08437B1F42ED02DD0F82E2BD052
:107F50003CD0F601EF2C8F010F5F1F4F84911BD097
:107F6000EA94F801C1F70894C11CD11CFA94CF0C13
:107F7000D11C0EC0853739F428D08EE10CD085E9AC
:107F80000AD08FE07ACF813511F488E018D01DD067
:107F900080E101D065CF982F8091C00085FFFCCF94
:107FA0009093C60008958091C00087FFFCCF809118
:107FB000C00084FD01C0A8958091C6000895E0E648
:107FC000F0E098E1908380830895EDDF803219F02E
:107FD00088E0F5DFFFCF84E1DECF1F93182FE3DFCA
:107FE0001150E9F7F2DF1F91089580E0E8DFEE27F6
:047FF000FF270994CA
:027FFE00040479
:0400000300007E007B
:00000001FF
