:100000000C945D000C9485000C9485000C94850084
:100010000C9485000C9485000C9485000C9485004C
:100020000C9485000C9498030C9485000C94850026
:100030000C9485000C9485000C9485000C9485002C
:100040000C94F6020C9485000C9466030C94400307
:100050000C9485000C9485000C9485000C9485000C
:100060000C9485000C94850000000008000201003B
:100070000003040700000000000000000000000072
:10008000250028002B0000000000240027002A0083
:10009000040404040404040402020202020203032E
:1000A0000303030301020408102040800102040836
:1000B0001020010204081020210511241FBECFEFDB
:1000C000D8E0DEBFCDBF11E0A0E0B1E0E6EBFAE0A2
:1000D00002C005900D92A231B107D9F721E0A2E14B
:1000E000B1E001C01D92AC3CB207E1F710E0CDE5F4
:1000F000D0E004C02197FE010E944E05CC35D10707
:10010000C9F70E940A040C9459050C94000090E071
:10011000FC01EC55FF4F2491FC01E057FF4F849107
:10012000882399F090E0880F991FFC01EA57FF4F50
:10013000A591B491FC01E458FF4F859194918FB73C
:10014000F894EC91E22BEC938FBF089590E0FC01C2
:10015000E859FF4F2491FC01EC55FF4F3491FC010D
:10016000E057FF4FE491EE2309F43CC0222339F11C
:10017000233091F038F42130A9F0223001F584B514
:100180008F7D12C0273091F02830A1F02430B9F4CF
:10019000809180008F7D03C0809180008F77809355
:1001A00080000DC084B58F7784BD09C08091B000F8
:1001B0008F7703C08091B0008F7D8093B000F0E016
:1001C000EE0FFF1FE458FF4FA591B4919FB7F8942D
:1001D000611104C08C913095382302C0EC913E2B04
:1001E0003C939FBF08953FB7F8948091C8019091C8
:1001F000C901A091CA01B091CB0126B5A89B05C049
:100200002F3F19F00196A11DB11D3FBFBA2FA92F95
:10021000982F8827820F911DA11DB11DBC01CD0112
:1002200042E0660F771F881F991F4A95D1F70895FE
:10023000CF92DF92EF92FF920F931F93CF93DF93B2
:100240006C017A018B01C0E0D0E0CE15DF0581F0B2
:10025000D8016D918D01D601ED91FC910190F08155
:10026000E02DC6010995892B11F02196EECF7E0174
:10027000C701DF91CF911F910F91FF90EF90DF9019
:10028000CF900895089580E090E00895FC01538D8B
:10029000448D252F30E0842F90E0821B930B541760
:1002A00010F0CF96089501970895FC01918D828DED
:1002B000981761F0828DDF01A80FB11D5D968C91BA
:1002C000928D9F5F9F73928F90E008958FEF9FEFC5
:1002D0000895FC01918D828D981731F0828DE80F81
:1002E000F11D858D90E008958FEF9FEF0895FC013B
:1002F000918D228D892F90E0805C9F4F821B910908
:100300008F739927089586E291E00E94770121E09A
:10031000892B09F420E0822F0895FC01848DDF01F0
:10032000A80FB11DA35ABF4F2C91848D90E0019668
:100330008F739927848FA689B7892C93A089B18957
:100340008C91837080648C93938D848D981306C0F8
:100350000288F389E02D80818F7D80830895EF925C
:10036000FF920F931F93CF93DF93EC0181E0888F6F
:100370009B8D8C8D981305C0E889F989808185FD56
:1003800026C0F62E0B8D10E00F5F1F4F0F73112745
:10039000E02E8C8DE8120CC00FB607FCFACFE8896E
:1003A000F989808185FFF5CFCE010E948D01F1CFC3
:1003B0008B8DFE01E80FF11DE35AFF4FF0829FB7CE
:1003C000F8940B8FEA89FB89808180620AC09FB70D
:1003D000F894EE89FF896083E889F98980818370C8
:1003E000806480839FBF81E090E0DF91CF911F9177
:1003F0000F91FF90EF900895CF93DF93EC01888DDC
:100400008823C9F0EA89FB89808185FD05C0A88918
:10041000B9898C9186FD0FC00FB607FCF5CF80819E
:1004200085FFF2CFA889B9898C9185FFEDCFCE01E8
:100430000E948D01E7CFDF91CF91089580E090E099
:10044000892B29F00E94830181110C9400000895EA
:10045000CF93DF9386E291E00E947701892B29F404
:1004600080911401883C91F40CC0C4E1D1E086E293
:1004700091E00E945501899381E0C931D807B9F70D
:10048000EFCF809119018A3509F4A2C08091130140
:100490008A3131F461E082E10E94A60060E007C089
:1004A0008B3251F461E082E10E94A60061E081E1BB
:1004B0000E94A60060E00BC08C3371F461E082E121
:1004C0000E94A60061E081E10E94A60061E080E157
:1004D0000E94A60060E00FC08D3491F461E082E1DB
:1004E0000E94A60061E081E10E94A60061E080E137
:1004F0000E94A60061E08FE00E94A60060E013C0A9
:100500008E35A1F461E082E10E94A60061E081E104
:100510000E94A60061E080E10E94A60061E08FE0F9
:100520000E94A60061E08EE00E94A6008091120168
:100530008A3131F461E08CE00E94A60060E007C0DF
:100540008B3291F461E08CE00E94A60061E08BE0C8
:100550000E94A60060E08AE00E94A60060E089E0B8
:100560000E94A60060E02FC08C3351F461E08CE063
:100570000E94A60061E08BE00E94A60061E0EBCF44
:100580008D3471F461E08CE00E94A60061E08BE0A4
:100590000E94A60061E08AE00E94A60061E0DFCF31
:1005A0008E35F9F461E08CE00E94A60061E08BE0FA
:1005B0000E94A60061E08AE00E94A60061E089E056
:1005C0000E94A60061E088E0DF91CF910C94A60024
:1005D000809115018093130180911601809312017F
:1005E00055CFDF91CF9108950E9454051F920F922D
:1005F0000FB60F9211242F933F938F939F93AF9336
:10060000BF938091C4019091C501A091C601B091A2
:10061000C7013091C30123E0230F2D3720F4019649
:10062000A11DB11D05C026E8230F0296A11DB11D15
:100630002093C3018093C4019093C501A093C60188
:10064000B093C7018091C8019091C901A091CA01DE
:10065000B091CB010196A11DB11D8093C80190936B
:10066000C901A093CA01B093CB01BF91AF919F91F3
:100670008F913F912F910F900FBE0F901F90189563
:100680001F920F920FB60F9211242F933F934F9307
:100690005F936F937F938F939F93AF93BF93EF93EA
:1006A000FF9386E291E00E948D01FF91EF91BF914F
:1006B000AF919F918F917F916F915F914F913F91FA
:1006C0002F910F900FBE0F901F9018951F920F92B1
:1006D0000FB60F9211242F938F939F93EF93FF9355
:1006E000E0913601F09137018081E0913C01F09179
:1006F0003D0182FD12C0908180913F018F5F8F7319
:1007000020914001821751F0E0913F01F0E0EA5D55
:10071000FE4F958F80933F0101C08081FF91EF9143
:100720009F918F912F910F900FBE0F901F90189552
:100730001F920F920FB60F9211242F933F934F9356
:100740005F936F937F938F939F93AF93BF93EF9339
:10075000FF9380911F01909120018093B2008091BE
:10076000220190912301A0912401B09125010196CD
:10077000A11DB11D8093220190932301A093240118
:10078000B09325018091220190912301A091240131
:10079000B091250140911B0150911C0160911D01F8
:1007A00070911E0184179507A607B70710F1809175
:1007B000210181111EC081E08093210180912201DD
:1007C00090912301A0912401B0912501841B950BE8
:1007D000A60BB70B8093220190932301A0932401D1
:1007E000B0932501E0911901F0911A010995109239
:1007F0002101FF91EF91BF91AF919F918F917F91D7
:100800006F915F914F913F912F910F900FBE0F907D
:100810001F901895789484B5826084BD84B58160FA
:1008200084BD85B5826085BD85B5816085BD8091BB
:100830006E00816080936E00109281008091810033
:10084000826080938100809181008160809381002B
:10085000809180008160809380008091B1008460ED
:100860008093B1008091B00081608093B00080914E
:100870007A00846080937A0080917A00826080930D
:100880007A0080917A00816080937A0080917A006A
:10089000806880937A001092C10088E00E948700EF
:1008A00089E00E9487008AE00E9487008BE00E9416
:1008B00087008CE00E9487008EE00E9487008FE016
:1008C0000E94870080E10E94870081E10E948700EA
:1008D00082E10E94870061E088E00E94A6000E94F9
:1008E000F3004B015C0184E6C82ED12CE12CF12CE5
:1008F0000E94F300DC01CB0188199909AA09BB0900
:10090000883E9340A105B10598F321E0C21AD108B1
:10091000E108F10888EE880E83E0981EA11CB11C46
:10092000C114D104E104F10419F760E088E00E94E9
:10093000A600E0913601F091370182E08083E091DA
:100940003201F09133011082E0913401F0913501D0
:100950008FEC808310923E01E0913A01F0913B01CF
:1009600086E08083E0913801F091390180818061D7
:100970008083E0913801F091390180818860808323
:10098000E0913801F0913901808180688083E091A5
:100990003801F091390180818F7D808384EF91E06F
:1009A000A0E0B0E080931B0190931C01A0931D0177
:1009B000B0931E0188E292E090931A01809319018E
:1009C000809170008E7F809370008091B0008C7F4A
:1009D0008093B0008091B100877F8093B1008091B7
:1009E000B6008F7D8093B600809170008D7F8093DC
:1009F00070008091B10084608093B1008091B1005B
:100A00008C7F8093B10086E090E0909320018093EA
:100A10001F011092220110922301109224011092C2
:100A200025011092210180911F0190912001809356
:100A3000B200809170008160809370000E941E025D
:100A4000FDCFE6E2F1E01382128288EE93E0A0E0AF
:100A5000B0E084839583A683B78384E091E091839B
:100A6000808385EC90E09587848784EC90E097877D
:100A7000868780EC90E0918B808B81EC90E0938B6B
:100A8000828B82EC90E0958B848B86EC90E0978B48
:100A9000868B118E128E138E148E0895EE0FFF1F0B
:100AA0000590F491E02D099481E090E0F8940C9485
:060AB0005905F894FFCF88
:100AB60000000000AF0118014601FC017701550155
:020AC6006901C4
:00000001FF
