:100000000C945D000C9485000C9485000C94850084
:100010000C9485000C9485000C9485000C9485004C
:100020000C9485000C9473030C9485000C9485004B
:100030000C9485000C9485000C9485000C9485002C
:100040000C94D1020C9485000C9441030C941B0376
:100050000C9485000C9485000C9485000C9485000C
:100060000C9485000C94850000000008000201003B
:100070000003040700000000000000000000000072
:10008000250028002B0000000000240027002A0083
:10009000040404040404040402020202020203032E
:1000A0000303030301020408102040800102040836
:1000B0001020010204081020CE0411241FBECFEF2F
:1000C000D8E0DEBFCDBF11E0A0E0B1E0E0E1FAE0B2
:1000D00002C005900D92A231B107D9F721E0A2E14B
:1000E000B1E001C01D92AC3CB207E1F710E0CDE5F4
:1000F000D0E004C02197FE010E94FB04CC35D1075B
:10010000C9F70E94E5030C9406050C94000090E0EA
:10011000FC01EC55FF4F2491FC01E057FF4F849107
:10012000882399F090E0880F991FFC01EA57FF4F50
:10013000A591B491FC01E458FF4F859194918FB73C
:10014000F894EC91E22BEC938FBF089590E0FC01C2
:10015000E859FF4F2491FC01EC55FF4F3491FC010D
:10016000E057FF4FE491EE2309F43CC0222339F11C
:10017000233091F038F42130A9F0223001F584B514
:100180008F7D12C0273091F02830A1F02430B9F4CF
:10019000809180008F7D03C0809180008F77809355
:1001A00080000DC084B58F7784BD09C08091B000F8
:1001B0008F7703C08091B0008F7D8093B000F0E016
:1001C000EE0FFF1FE458FF4FA591B4919FB7F8942D
:1001D000611104C08C913095382302C0EC913E2B04
:1001E0003C939FBF0895CF92DF92EF92FF920F93BF
:1001F0001F93CF93DF936C017A018B01C0E0D0E0B5
:10020000CE15DF0581F0D8016D918D01D601ED91FC
:10021000FC910190F081E02DC6010995892B11F028
:100220002196EECF7E01C701DF91CF911F910F91F3
:10023000FF90EF90DF90CF900895089580E090E0D8
:100240000895FC01538D448D252F30E0842F90E0DC
:10025000821B930B541710F0CF96089501970895C1
:10026000FC01918D828D981761F0828DDF01A80FBE
:10027000B11D5D968C91928D9F5F9F73928F90E0E0
:1002800008958FEF9FEF0895FC01918D828D98174F
:1002900031F0828DE80FF11D858D90E008958FEF8C
:1002A0009FEF0895FC01918D228D892F90E0805C55
:1002B0009F4F821B91098F739927089586E291E0E1
:1002C0000E94520121E0892B09F420E0822F089539
:1002D000FC01848DDF01A80FB11DA35ABF4F2C91E3
:1002E000848D90E001968F739927848FA689B789B2
:1002F0002C93A089B1898C91837080648C93938DA9
:10030000848D981306C00288F389E02D80818F7D4B
:1003100080830895EF92FF920F931F93CF93DF9303
:10032000EC0181E0888F9B8D8C8D981305C0E88946
:10033000F989808185FD26C0F62E0B8D10E00F5FB8
:100340001F4F0F731127E02E8C8DE8120CC00FB6D3
:1003500007FCFACFE889F989808185FFF5CFCE01C6
:100360000E946801F1CF8B8DFE01E80FF11DE35A69
:10037000FF4FF0829FB7F8940B8FEA89FB89808149
:1003800080620AC09FB7F894EE89FF896083E8898C
:10039000F98980818370806480839FBF81E090E0D1
:1003A000DF91CF911F910F91FF90EF900895CF9320
:1003B000DF93EC01888D8823C9F0EA89FB8980816D
:1003C00085FD05C0A889B9898C9186FD0FC00FB63F
:1003D00007FCF5CF808185FFF2CFA889B9898C9180
:1003E00085FFEDCFCE010E946801E7CFDF91CF916D
:1003F000089580E090E0892B29F00E945E01811130
:100400000C9400000895CF93DF9386E291E00E9460
:100410005201892B29F480911401883C91F40CC07D
:10042000C4E1D1E086E291E00E943001899381E04D
:10043000C931D807B9F7EFCF809117018A3509F490
:10044000A2C0809113018A3131F461E082E10E94FF
:10045000A60060E007C08B3251F461E082E10E94A7
:10046000A60061E081E10E94A60060E00BC08C3331
:1004700071F461E082E10E94A60061E081E10E94E6
:10048000A60061E080E10E94A60060E00FC08D340C
:1004900091F461E082E10E94A60061E081E10E94A6
:1004A000A60061E080E10E94A60061E08FE00E946A
:1004B000A60060E013C08E35A1F461E082E10E94E5
:1004C000A60061E081E10E94A60061E080E10E9457
:1004D000A60061E08FE00E94A60061E08EE00E942D
:1004E000A600809112018A3131F461E08CE00E9413
:1004F000A60060E007C08B3291F461E08CE00E94BE
:10050000A60061E08BE00E94A60060E08AE00E9405
:10051000A60060E089E00E94A60060E02FC08C3356
:1005200051F461E08CE00E94A60061E08BE00E9443
:10053000A60061E0EBCF8D3471F461E08CE00E94A5
:10054000A60061E08BE00E94A60061E08AE00E94C4
:10055000A60061E0DFCF8E35F9F461E08CE00E9407
:10056000A60061E08BE00E94A60061E08AE00E94A4
:10057000A60061E089E00E94A60061E088E0DF91CA
:10058000CF910C94A6008091150180931301809166
:1005900016018093120155CFDF91CF9108950E94EB
:1005A00001051F920F920FB60F9211242F933F93C4
:1005B0008F939F93AF93BF938091C8019091C9018E
:1005C000A091CA01B091CB013091C70123E0230F64
:1005D0002D3720F40196A11DB11D05C026E8230F7B
:1005E0000296A11DB11D2093C7018093C80190936D
:1005F000C901A093CA01B093CB018091C30190912E
:10060000C401A091C501B091C6010196A11DB11D03
:100610008093C3019093C401A093C501B093C60118
:10062000BF91AF919F918F913F912F910F900FBEEE
:100630000F901F9018951F920F920FB60F921124D2
:100640002F933F934F935F936F937F938F939F93DA
:10065000AF93BF93EF93FF9386E291E00E9468010E
:10066000FF91EF91BF91AF919F918F917F916F918A
:100670005F914F913F912F910F900FBE0F901F9060
:1006800018951F920F920FB60F9211242F938F93EC
:100690009F93EF93FF93E0913601F09137018081B2
:1006A000E0913C01F0913D0182FD12C0908180916A
:1006B0003F018F5F8F7320914001821751F0E091CD
:1006C0003F01F0E0EA5DFE4F958F80933F0101C04E
:1006D0008081FF91EF919F918F912F910F900FBE8D
:1006E0000F901F9018951F920F920FB60F92112422
:1006F0002F933F934F935F936F937F938F939F932A
:10070000AF93BF93EF93FF9380911F0190912001CE
:100710008093B2008091220190912301A091240145
:10072000B09125010196A11DB11D809322019093E6
:100730002301A0932401B09325018091220190917F
:100740002301A0912401B091250140911B015091FA
:100750001C0160911D0170911E0184179507A60769
:10076000B70710F18091210181111EC081E08093B3
:1007700021018091220190912301A0912401B09147
:100780002501841B950BA60BB70B80932201909338
:100790002301A0932401B0932501E0911901F09168
:1007A0001A01099510922101FF91EF91BF91AF912C
:1007B0009F918F917F916F915F914F913F912F9179
:1007C0000F900FBE0F901F901895789484B582609B
:1007D00084BD84B5816084BD85B5826085BD85B5E5
:1007E000816085BD80916E00816080936E00109263
:1007F00081008091810082608093810080918100DE
:10080000816080938100809180008160809380006E
:100810008091B10084608093B1008091B0008160CC
:100820008093B00080917A00846080937A008091F8
:100830007A00826080937A0080917A008160809350
:100840007A0080917A00806880937A001092C100CB
:1008500088E00E94870089E00E9487008AE00E9469
:1008600087008BE00E9487008CE00E9487008EE06A
:100870000E9487008FE00E94870080E10E9487002D
:1008800081E10E94870082E10E948700E0913601A9
:10089000F091370182E08083E0913201F0913301E1
:1008A0001082E0913401F09135018FEC8083109239
:1008B0003E01E0913A01F0913B0186E08083E091B6
:1008C0003801F0913901808180618083E0913801A5
:1008D000F0913901808188608083E0913801F09146
:1008E0003901808180688083E0913801F09139017D
:1008F00080818F7D808388EC90E0A0E0B0E08093E1
:100900001B0190931C01A0931D01B0931E0183E075
:1009100092E090931A0180931901809170008E7F6C
:10092000809370008091B0008C7F8093B0008091A4
:10093000B100877F8093B1008091B6008F7D809356
:10094000B600809170008D7F809370008091B1001F
:1009500084608093B1008091B1008C7F8093B1005E
:1009600086E090E09093200180931F011092220175
:10097000109223011092240110922501109221015E
:1009800080911F01909120018093B20080917000AE
:100990008160809370000E94F901FDCFE6E2F1E0F2
:1009A0001382128288EE93E0A0E0B0E08483958306
:1009B000A683B78384E091E09183808385EC90E007
:1009C0009587848784EC90E09787868780EC90E019
:1009D000918B808B81EC90E0938B828B82EC90E00A
:1009E000958B848B86EC90E0978B868B118E128E84
:1009F000138E148E0895EE0FFF1F0590F491E02DD5
:100A0000099481E090E0F8940C940605F894FFCFE7
:100A1000000000008A01F3002101D70152013001DA
:020A200044018F
:107E0000112484B714BE81FFF0D085E080938100F7
:107E100082E08093C00088E18093C10086E0809377
:107E2000C20080E18093C4008EE0C9D0259A86E02C
:107E300020E33CEF91E0309385002093840096BBD3
:107E4000B09BFECF1D9AA8958150A9F7CC24DD24C4
:107E500088248394B5E0AB2EA1E19A2EF3E0BF2EE7
:107E6000A2D0813461F49FD0082FAFD0023811F036
:107E7000013811F484E001C083E08DD089C08234E0
:107E800011F484E103C0853419F485E0A6D080C0E4
:107E9000853579F488D0E82EFF2485D0082F10E0AE
:107EA000102F00270E291F29000F111F8ED06801E7
:107EB0006FC0863521F484E090D080E0DECF843638
:107EC00009F040C070D06FD0082F6DD080E0C81688
:107ED00080E7D80618F4F601B7BEE895C0E0D1E017
:107EE00062D089930C17E1F7F0E0CF16F0E7DF06D8
:107EF00018F0F601B7BEE89568D007B600FCFDCFD4
:107F0000A601A0E0B1E02C9130E011968C91119780
:107F100090E0982F8827822B932B1296FA010C0160
:107F200087BEE89511244E5F5F4FF1E0A038BF0790
:107F300051F7F601A7BEE89507B600FCFDCF97BE46
:107F4000E89526C08437B1F42ED02DD0F82E2BD052
:107F50003CD0F601EF2C8F010F5F1F4F84911BD097
:107F6000EA94F801C1F70894C11CD11CFA94CF0C13
:107F7000D11C0EC0853739F428D08EE10CD085E9AC
:107F80000AD08FE07ACF813511F488E018D01DD067
:107F900080E101D065CF982F8091C00085FFFCCF94
:107FA0009093C60008958091C00087FFFCCF809118
:107FB000C00084FD01C0A8958091C6000895E0E648
:107FC000F0E098E1908380830895EDDF803219F02E
:107FD00088E0F5DFFFCF84E1DECF1F93182FE3DFCA
:107FE0001150E9F7F2DF1F91089580E0E8DFEE27F6
:047FF000FF270994CA
:027FFE00040479
:0400000300007E007B
:00000001FF
